{
  "address": "0x22C42c406046446EAd59388877Aa710b87962974",
  "abi": [
    {
      "inputs": [
        {
          "internalType": "uint256",
          "name": "",
          "type": "uint256"
        }
      ],
      "name": "poemBodies",
      "outputs": [
        {
          "internalType": "string",
          "name": "",
          "type": "string"
        }
      ],
      "stateMutability": "view",
      "type": "function"
    },
    {
      "inputs": [
        {
          "internalType": "uint256",
          "name": "",
          "type": "uint256"
        }
      ],
      "name": "poemTitles",
      "outputs": [
        {
          "internalType": "string",
          "name": "",
          "type": "string"
        }
      ],
      "stateMutability": "view",
      "type": "function"
    },
    {
      "inputs": [
        {
          "internalType": "uint256",
          "name": "id",
          "type": "uint256"
        }
      ],
      "name": "tokenURI",
      "outputs": [
        {
          "internalType": "string",
          "name": "",
          "type": "string"
        }
      ],
      "stateMutability": "view",
      "type": "function"
    }
  ],
  "transactionHash": "0x3fcd160234b765934dc29487a6e5e734580b291e00b1861c960c4ed2829f7e2c",
  "args": [],
  "numDeployments": 1,
  "solcInputHash": "9d362a9261eac5217bad10d772735e46",
  "bytecode": "0x6080604052604051806104e001604052806040518060400160405280601b81526020017fe38182e38182e59bbae38184e6b0b7e38292e7a0b4e381a4e381a6000000000081525081526020016040518060400160405280600f81526020017fe88a9de7949fe381aee4b88ae381a7000000000000000000000000000000000081525081526020016040518060400160405280601281526020017fe8888ce381aee381aae38184e79c9ee79086000000000000000000000000000081525081526020016040518060400160405280600681526020017fe68588e682b2000000000000000000000000000000000000000000000000000081525081526020016040518060400160405280600681526020017fe7a78be699b4000000000000000000000000000000000000000000000000000081525081526020016040518060400160405280600f81526020017fe999b8e6a98be38292e6b8a1e3828b000000000000000000000000000000000081525081526020016040518060400160405280601581526020017fe6b699e38190e381bee38197e38184e5a495e69aae000000000000000000000081525081526020016040518060400160405280601581526020017fe59cb0e79083e38292e8b7b3e8ba8de38197e381a6000000000000000000000081525081526020016040518060400160405280601281526020017fe5a49ce6b1bde8bb8ae381aee7aa93e381a7000000000000000000000000000081525081526020016040518060400160405280600f81526020017fe698a5e381aee3818fe3828be69982000000000000000000000000000000000081525081526020016040518060400160405280601281526020017fe6a5b5e58589e59cb0e696b9e3818be38289000000000000000000000000000081525081526020016040518060400160405280600681526020017fe696b7e6a98b000000000000000000000000000000000000000000000000000081525081526020016040518060400160405280601281526020017fe9818be591bde381b8e381aee5bf8de8beb1000000000000000000000000000081525081526020016040518060400160405280600f81526020017fe5af82e5afa5e381aee5b79de9828a000000000000000000000000000000000081525081526020016040518060400160405280600c81526020017fe888b9e5aea4e3818be38289000000000000000000000000000000000000000081525081526020016040518060400160405280601281526020017fe8a898e686b6e38292e68da8e381a6e3828b0000000000000000000000000000815250815260200160405180606001604052806024815260200162003aeb6024913981526020016040518060400160405280601281526020017fe6b8afe381aee99b9ce8b2a8e5ba97e381a7000000000000000000000000000081525081526020016040518060400160405280600381526020017fe98fa1000000000000000000000000000000000000000000000000000000000081525081526020016040518060400160405280600381526020017fe78b90000000000000000000000000000000000000000000000000000000000081525081526020016040518060400160405280600f81526020017fe590b9e99baae381aee4b8ade381a7000000000000000000000000000000000081525081526020016040518060400160405280601281526020017fe98a83e599a8e5ba97e381aee5898de381a7000000000000000000000000000081525081526020016040518060400160405280600c81526020017fe8999ae695b8e381aee8998e000000000000000000000000000000000000000081525081526020016040518060400160405280600f81526020017fe887aae784b6e381aee4b8ade381a7000000000000000000000000000000000081525081526020016040518060400160405280601281526020017fe8a7b8e6898be38182e3828be7a9bae99693000000000000000000000000000081525081526020016040518060400160405280600681526020017fe5a4a7e4bd9b000000000000000000000000000000000000000000000000000081525081526020016040518060400160405280600381526020017fe5aeb6000000000000000000000000000000000000000000000000000000000081525081526020016040518060400160405280600c81526020017fe9bb92e38184e6b48be58298000000000000000000000000000000000000000081525081526020016040518060400160405280601881526020017fe68190e3828de38197e3818de4babae5bda2e88a9de5b185000000000000000081525081526020016040518060400160405280601581526020017fe9bd92e38292e38282e381a6e3828be6848fe5bf97000000000000000000000081525081526020016040518060400160405280601381526020017fe5bbbae7af89e381ae204e6f7374616c6769610000000000000000000000000081525081526020016040518060400160405280600381526020017fe788b6000000000000000000000000000000000000000000000000000000000081525081526020016040518060400160405280600381526020017fe695b5000000000000000000000000000000000000000000000000000000000081525081526020016040518060400160405280600f81526020017fe789a9e8b3aae381aee6849fe68385000000000000000000000000000000000081525081526020016040518060400160405280600681526020017fe789a9e9ab94000000000000000000000000000000000000000000000000000081525081526020016040518060400160405280600381526020017fe9be8d000000000000000000000000000000000000000000000000000000000081525081526020016040518060400160405280600381526020017fe6a98b000000000000000000000000000000000000000000000000000000000081525081526020016040518060400160405280600c81526020017fe5b1b1e4b88ae381aee7a588000000000000000000000000000000000000000081525081526020016040518060400160405280601281526020017fe688b0e5a0b4e381a7e381aee5b9bbe683b3000000000000000000000000000081525081525060009060276200090192919062000e31565b50604051806104e001604052806040518061022001604052806101f6815260200162002fba6101f69139815260200160405180610240016040528061021981526020016200474b61021991398152602001604051806101e001604052806101ba81526020016200440b6101ba91398152602001604051806102c00160405280610283815260200162002c59610283913981526020016040518061022001604052806101ea815260200162003fa36101ea91398152602001604051806102400160405280610204815260200162004b26610204913981526020016040518061020001604052806101e0815260200162004f3d6101e0913981526020016040518061018001604052806101578152602001620031b061015791398152602001604051806101e001604052806101b0815260200162004d2a6101b09139815260200160405180610100016040528060de815260200162002edc60de913981526020016040518061028001604052806102418152602001620054cf6102419139815260200160405180610160016040528061012381526020016200530d610123913981526020016040518060c00160405280608a815260200162004964608a91398152602001604051806102a0016040528061026e81526020016200363061026e913981526020016040518061040001604052806103d3815260200162003b0f6103d39139815260200160405180610120016040528060f681526020016200431560f6913981526020016040518061022001604052806101f081526020016200511d6101f091398152602001604051806101600160405280610128815260200162003307610128913981526020016040518060a001604052806063815260200162004eda606391398152602001604051806101600160405280610129815260200162005710610129913981526020016040518060800160405280604e815260200162003a9d604e9139815260200160405180610120016040528060e881526020016200394f60e891398152602001604051806101c001604052806101868152602001620045c5610186913981526020016040518060a0016040528060668152602001620035ca6066913981526020016040518060e0016040528060b2815260200162002b3860b2913981526020016040518060e0016040528060b181526020016200389e60b1913981526020016040518060800160405280604b815260200162005950604b913981526020016040518060c0016040528060a0815260200162003ee260a0913981526020016040518060c00160405280609f815260200162005430609f913981526020016040518060a00160405280606f815260200162002bea606f91398152602001604051806101c0016040528061018881526020016200418d6101889139815260200160405180606001604052806021815260200162003f826021913981526020016040518060a00160405280606381526020016200342f6063913981526020016040518060a001604052806066815260200162003a37606691398152602001604051806101200160405280610100815260200162002a38610100913981526020016040518060e0016040528060ae81526020016200599b60ae913981526020016040518061016001604052806101388152602001620049ee61013891398152602001604051806101600160405280610138815260200162003492610138913981526020016040518061014001604052806101178152602001620058396101179139815250600190602762000e1c92919062000e31565b5034801562000e2a57600080fd5b506200101b565b82805482825590600052602060002090810192821562000e85579160200282015b8281111562000e8457825182908051906020019062000e7392919062000e98565b509160200191906001019062000e52565b5b50905062000e94919062000f29565b5090565b82805462000ea69062000fb6565b90600052602060002090601f01602090048101928262000eca576000855562000f16565b82601f1062000ee557805160ff191683800117855562000f16565b8280016001018555821562000f16579182015b8281111562000f1557825182559160200191906001019062000ef8565b5b50905062000f25919062000f51565b5090565b5b8082111562000f4d576000818162000f43919062000f70565b5060010162000f2a565b5090565b5b8082111562000f6c57600081600090555060010162000f52565b5090565b50805462000f7e9062000fb6565b6000825580601f1062000f92575062000fb3565b601f01602090049060005260206000209081019062000fb2919062000f51565b5b50565b6000600282049050600182168062000fcf57607f821691505b6020821081141562000fe65762000fe562000fec565b5b50919050565b7f4e487b7100000000000000000000000000000000000000000000000000000000600052602260045260246000fd5b611a0d806200102b6000396000f3fe608060405234801561001057600080fd5b50600436106100415760003560e01c8063a86faa8c14610046578063c87b56dd14610076578063e227fddb146100a6575b600080fd5b610060600480360381019061005b9190610d49565b6100d6565b60405161006d91906110d8565b60405180910390f35b610090600480360381019061008b9190610d49565b610182565b60405161009d91906110d8565b60405180910390f35b6100c060048036038101906100bb9190610d49565b610aa2565b6040516100cd91906110d8565b60405180910390f35b600081815481106100e657600080fd5b90600052602060002001600091509050805461010190611254565b80601f016020809104026020016040519081016040528092919081815260200182805461012d90611254565b801561017a5780601f1061014f5761010080835404028352916020019161017a565b820191906000526020600020905b81548152906001019060200180831161015d57829003601f168201915b505050505081565b606061018c610d0c565b6040518060800160405280605a81526020016118f5605a9139816000600b81106101df577f4e487b7100000000000000000000000000000000000000000000000000000000600052603260045260246000fd5b602002018190525060405180610260016040528061023181526020016116846102319139816001600b811061023d577f4e487b7100000000000000000000000000000000000000000000000000000000600052603260045260246000fd5b602002018190525060405180608001604052806044815260200161199460449139816002600b8110610298577f4e487b7100000000000000000000000000000000000000000000000000000000600052603260045260246000fd5b602002018190525060405180606001604052806034815260200161162460349139816003600b81106102f3577f4e487b7100000000000000000000000000000000000000000000000000000000600052603260045260246000fd5b60200201819052506040518060a00160405280606d81526020016115b7606d9139816004600b811061034e577f4e487b7100000000000000000000000000000000000000000000000000000000600052603260045260246000fd5b602002018190525060008381548110610390577f4e487b7100000000000000000000000000000000000000000000000000000000600052603260045260246000fd5b9060005260206000200180546103a590611254565b80601f01602080910402602001604051908101604052809291908181526020018280546103d190611254565b801561041e5780601f106103f35761010080835404028352916020019161041e565b820191906000526020600020905b81548152906001019060200180831161040157829003601f168201915b5050505050816005600b811061045d577f4e487b7100000000000000000000000000000000000000000000000000000000600052603260045260246000fd5b60200201819052506040518060600160405280602c8152602001611658602c9139816006600b81106104b8577f4e487b7100000000000000000000000000000000000000000000000000000000600052603260045260246000fd5b6020020181905250600183815481106104fa577f4e487b7100000000000000000000000000000000000000000000000000000000600052603260045260246000fd5b90600052602060002001805461050f90611254565b80601f016020809104026020016040519081016040528092919081815260200182805461053b90611254565b80156105885780601f1061055d57610100808354040283529160200191610588565b820191906000526020600020905b81548152906001019060200180831161056b57829003601f168201915b5050505050816007600b81106105c7577f4e487b7100000000000000000000000000000000000000000000000000000000600052603260045260246000fd5b602002018190525060405180608001604052806045815260200161194f60459139816008600b8110610622577f4e487b7100000000000000000000000000000000000000000000000000000000600052603260045260246000fd5b60200201819052506040518060400160405280601481526020017fe2809520e890a9e58e9f20e69c94e5a4aae9838e000000000000000000000000815250816009600b811061069a577f4e487b7100000000000000000000000000000000000000000000000000000000600052603260045260246000fd5b60200201819052506040518060400160405280601a81526020017f3c2f703e3c2f666f726569676e4f626a6563743e3c2f7376673e00000000000081525081600a600b8110610712577f4e487b7100000000000000000000000000000000000000000000000000000000600052603260045260246000fd5b60200201819052506000816000600b8110610756577f4e487b7100000000000000000000000000000000000000000000000000000000600052603260045260246000fd5b6020020151826001600b8110610795577f4e487b7100000000000000000000000000000000000000000000000000000000600052603260045260246000fd5b6020020151836002600b81106107d4577f4e487b7100000000000000000000000000000000000000000000000000000000600052603260045260246000fd5b6020020151846003600b8110610813577f4e487b7100000000000000000000000000000000000000000000000000000000600052603260045260246000fd5b6020020151856004600b8110610852577f4e487b7100000000000000000000000000000000000000000000000000000000600052603260045260246000fd5b6020020151866005600b8110610891577f4e487b7100000000000000000000000000000000000000000000000000000000600052603260045260246000fd5b6020020151876006600b81106108d0577f4e487b7100000000000000000000000000000000000000000000000000000000600052603260045260246000fd5b6020020151886007600b811061090f577f4e487b7100000000000000000000000000000000000000000000000000000000600052603260045260246000fd5b6020020151896008600b811061094e577f4e487b7100000000000000000000000000000000000000000000000000000000600052603260045260246000fd5b60200201518a6009600b811061098d577f4e487b7100000000000000000000000000000000000000000000000000000000600052603260045260246000fd5b60200201518b600a600b81106109cc577f4e487b7100000000000000000000000000000000000000000000000000000000600052603260045260246000fd5b60200201516040516020016109eb9b9a99989796959493929190610f96565b60405160208183030381529060405290506000610a7360008681548110610a3b577f4e487b7100000000000000000000000000000000000000000000000000000000600052603260045260246000fd5b90600052602060002001610a4e84610b4e565b604051602001610a5f92919061102f565b604051602081830303815290604052610b4e565b905080604051602001610a8691906110b6565b6040516020818303038152906040529150819350505050919050565b60018181548110610ab257600080fd5b906000526020600020016000915090508054610acd90611254565b80601f0160208091040260200160405190810160405280929190818152602001828054610af990611254565b8015610b465780601f10610b1b57610100808354040283529160200191610b46565b820191906000526020600020905b815481529060010190602001808311610b2957829003601f168201915b505050505081565b60606000825190506000811415610b775760405180602001604052806000815250915050610d07565b60006003600283610b889190611136565b610b92919061118c565b6004610b9e91906111bd565b90506000602082610baf9190611136565b67ffffffffffffffff811115610bee577f4e487b7100000000000000000000000000000000000000000000000000000000600052604160045260246000fd5b6040519080825280601f01601f191660200182016040528015610c205781602001600182028036833780820191505090505b50905060006040518060600160405280604081526020016118b5604091399050600181016020830160005b86811015610cc45760038101905062ffffff818a015116603f8160121c168401518060081b905060ff603f83600c1c1686015116810190508060081b905060ff603f8360061c1686015116810190508060081b905060ff603f831686015116810190508060e01b90508084526004840193505050610c4b565b506003860660018114610cde5760028114610cee57610cf9565b613d3d60f01b6002830352610cf9565b603d60f81b60018303525b508484525050819450505050505b919050565b604051806101600160405280600b905b6060815260200190600190039081610d1c5790505090565b600081359050610d438161159f565b92915050565b600060208284031215610d5b57600080fd5b6000610d6984828501610d34565b91505092915050565b6000610d7d8261110f565b610d87818561111a565b9350610d97818560208601611221565b610da081611313565b840191505092915050565b6000610db68261110f565b610dc0818561112b565b9350610dd0818560208601611221565b80840191505092915050565b60008154610de981611254565b610df3818661112b565b94506001821660008114610e0e5760018114610e1f57610e52565b60ff19831686528186019350610e52565b610e28856110fa565b60005b83811015610e4a57815481890152600182019150602081019050610e2b565b838801955050505b50505092915050565b6000610e6860028361112b565b9150610e7382611324565b600282019050919050565b6000610e8b60108361112b565b9150610e968261134d565b601082019050919050565b6000610eae60d78361112b565b9150610eb982611376565b60d782019050919050565b6000610ed160248361112b565b9150610edc82611483565b602482019050919050565b6000610ef460018361112b565b9150610eff826114d2565b600182019050919050565b6000610f1760098361112b565b9150610f22826114fb565b600982019050919050565b6000610f3a60018361112b565b9150610f4582611524565b600182019050919050565b6000610f5d601d8361112b565b9150610f688261154d565b601d82019050919050565b6000610f8060178361112b565b9150610f8b82611576565b601782019050919050565b6000610fa2828e610dab565b9150610fae828d610dab565b9150610fba828c610dab565b9150610fc6828b610dab565b9150610fd2828a610dab565b9150610fde8289610dab565b9150610fea8288610dab565b9150610ff68287610dab565b91506110028286610dab565b915061100e8285610dab565b915061101a8284610dab565b91508190509c9b505050505050505050505050565b600061103a82610f2d565b915061104582610f0a565b91506110518285610ddc565b915061105c82610e5b565b915061106782610ea1565b915061107282610ec4565b915061107e8284610dab565b915061108982610e5b565b915061109482610f73565b915061109f82610e7e565b91506110aa82610ee7565b91508190509392505050565b60006110c182610f50565b91506110cd8284610dab565b915081905092915050565b600060208201905081810360008301526110f28184610d72565b905092915050565b60008190508160005260206000209050919050565b600081519050919050565b600082825260208201905092915050565b600081905092915050565b600061114182611217565b915061114c83611217565b9250827fffffffffffffffffffffffffffffffffffffffffffffffffffffffffffffffff0382111561118157611180611286565b5b828201905092915050565b600061119782611217565b91506111a283611217565b9250826111b2576111b16112b5565b5b828204905092915050565b60006111c882611217565b91506111d383611217565b9250817fffffffffffffffffffffffffffffffffffffffffffffffffffffffffffffffff048311821515161561120c5761120b611286565b5b828202905092915050565b6000819050919050565b60005b8381101561123f578082015181840152602081019050611224565b8381111561124e576000848401525b50505050565b6000600282049050600182168061126c57607f821691505b602082108114156112805761127f6112e4565b5b50919050565b7f4e487b7100000000000000000000000000000000000000000000000000000000600052601160045260246000fd5b7f4e487b7100000000000000000000000000000000000000000000000000000000600052601260045260246000fd5b7f4e487b7100000000000000000000000000000000000000000000000000000000600052602260045260246000fd5b6000601f19601f8301169050919050565b7f222c000000000000000000000000000000000000000000000000000000000000600082015250565b7f2263726561746f72223a20224172612200000000000000000000000000000000600082015250565b7f226465736372697074696f6e223a20225468697274792d6e696e6520706f656d60008201527f732066726f6d2053616b757461726f2048616769776172612773206c6174652060208201527f73656c662d73656c656374656420636f6c6c656374696f6e205c225368756b7560408201527f6d65695c222068617665206265656e20696e73637269626564206f6e20426c6f60608201527f636b636861696e2061732066756c6c2d6f6e636861696e204e4654732e20546860808201527f6520636f6e74656e74206f662074686973204e4654206368616e67657320646560a08201527f70656e64696e67206f6e20746865206f776e65722e222c00000000000000000060c082015250565b7f22696d616765223a2022646174613a696d6167652f7376672b786d6c3b62617360008201527f6536342c00000000000000000000000000000000000000000000000000000000602082015250565b7f7d00000000000000000000000000000000000000000000000000000000000000600082015250565b7f226e616d65223a20220000000000000000000000000000000000000000000000600082015250565b7f7b00000000000000000000000000000000000000000000000000000000000000600082015250565b7f646174613a6170706c69636174696f6e2f6a736f6e3b6261736536342c000000600082015250565b7f226c6963656e7365223a202243432d425920342e30222c000000000000000000600082015250565b6115a881611217565b81146115b357600080fd5b5056fe3c666f726569676e4f626a65637420783d2232352220793d223135222077696474683d2233353022206865696768743d22333730223e3c7020636c6173733d22736861646f772220786d6c6e733d22687474703a2f2f7777772e77332e6f72672f313939392f7868746d6c223e3c726563742077696474683d2234303022206865696768743d22343030222066696c6c3d2275726c282367726164312922202f3e3c2f703e3c7020786d6c6e733d22687474703a2f2f7777772e77332e6f72672f313939392f7868746d6c223e3c646566733e3c6c696e6561724772616469656e742069643d226772616431222078313d223025222079313d2235302522203e3c73746f70206f66667365743d223025222073746f702d636f6c6f723d222330663233353022203e3c616e696d6174652069643d22613122206174747269627574654e616d653d2273746f702d636f6c6f72222076616c7565733d22233066323335303b20233661356163642220626567696e3d22303b2061322e656e6422206475723d22337322202f3e3c616e696d6174652069643d22613222206174747269627574654e616d653d2273746f702d636f6c6f72222076616c7565733d22233661356163643b20233066323335302220626567696e3d2261312e656e6422206475723d22337322202f3e3c2f73746f703e3c73746f70206f66667365743d2231303025222073746f702d636f6c6f723d222336613561636422203e3c616e696d6174652069643d22613322206174747269627574654e616d653d2273746f702d636f6c6f72222076616c7565733d22233661356163643b20233066323335302220626567696e3d22303b2061342e656e6422206475723d22337322202f3e3c616e696d6174652069643d22613422206174747269627574654e616d653d2273746f702d636f6c6f72222076616c7565733d22233066323335303b20233661356163642220626567696e3d2261332e656e6422206475723d22337322202f3e3c2f73746f703e3c2f6c696e6561724772616469656e743e3c2f646566733e4142434445464748494a4b4c4d4e4f505152535455565758595a6162636465666768696a6b6c6d6e6f707172737475767778797a303132333435363738392b2f3c7376672077696474683d2234303022206865696768743d22343030222076696577426f783d22302c20302c203430302c203430302220786d6c6e733d22687474703a2f2f7777772e77332e6f72672f323030302f737667223e3c2f703e3c70207374796c653d2270616464696e672d746f703a2031656d2220786d6c6e733d22687474703a2f2f7777772e77332e6f72672f313939392f7868746d6c223e3c7374796c6520747970653d22746578742f637373223e70207b666f6e742d66616d696c793a2073657269663b20636f6c6f723a2077686974653b7d3c2f7374796c653ea2646970667358221220233987581f65706ff65e695e8b02c51260b52c7fa27ed4cd035262c4f2e57af564736f6c63430008040033e7a781e3818ce38282e38197e789a9e9ab94e381a7e38182e38289e38186e381a8e38282e38081e7a59ee381afe5868de5baa6e69c97e38289e3818be381abe7ac91e381b2e381afe38197e381aae38184e38082e38182e38182e38081e790b4e381aee99fb3e3818ce881bde38188e381a6e4be86e3828be38082e28095e28095e5b08fe38195e381aae4b880e381a4e381ae3c727562793e3c72623ee580abe790863c2f72623e3c72703eefbc883c2f72703e3c72743ee383a2e383a9e383ab3c2f72743e3c72703eefbc893c2f72703e3c2f727562793ee3818ce38081e596aae5a4b1e38197e381a6e38197e381bee381a4e3819fe381aee381a0e38082e5aebfe591bde79a84e381aae3828be69db1e6b48be381aee5bbbae7af89e381afe38081e3819de381aee5b18be6a0b9e381aee4b88be381a7e5bf8de5be9ee38197e381aae3818ce38289e380813c727562793e3c72623ee7948d3c2f72623e3c72703eefbc883c2f72703e3c72743ee38184e38289e3818b3c2f72743e3c72703eefbc893c2f72703e3c2f727562793ee381abe696bce381a6e68092e3828ae7ab8be381a4e381a6e38290e3828be38082e6848fe5bf97efbc81e38080e3819de381afe5a495e69aaee381aee6b5b7e38288e3828ae38197e381a6e38081e9b1b6e381aee5a682e3818fe381abe6b3b3e3818ee4be86e3828ae38081e9bd92e38292e4bba5e381a6e88289e381abe5999be381bfe381a4e38191e3828ae38082e9a2a8e790b4e381ae3c727562793e3c72623ee98eade9ad82e6a8823c2f72623e3c72703eefbc883c2f72703e3c72743ee3828ce3818fe3828ce38188e382803c2f72743e3c72703eefbc893c2f72703e3c2f727562793ee38292e3818de3818fe38284e38186e381abe38081e586a5e683b3e381aee58e9ae38184e5a381e381aee5bdb1e381a7e38081e99d9ce3818be381abe6b9a7e3818de38182e3818ce381a4e381a6e3818fe3828be9bb92e38184e6849fe68385e38082e68385e685bee381aee5bcb7e38184e683b1e381bfe38292e68a91e381b8e38081e69e9ce695a2e381aae38184e9818be591bde381b8e381aee58f9be98086e38284e38081e4bd95e381a8e38184e381b5e38193e381a8e38282e381aae38184e7949fe6b4bbe381aee69a97e68481e38284e38081e38184e38289e38184e38289e38197e3819fe5bf83e381aee784a6e787a5e38284e38292e5bf98e3828ce38195e3819be38081e5ae89e38289e3818be381aae5ae89e38289e3818be381aae5afa2e887bae381aee4b88ae381a7e38081e99d88e9ad82e381aee6b7b1e381bfe38182e3828be79ca0e3828ae38292e38195e3819de381b5e38284e38186e381aae38081e4b880e381a4e381aee58a9be38182e3828be99d9ce3818be381aae6849fe68385e38082e3819de3828ce381afe7949fe6b4bbe381aee796b2e3828ce3819fe89684e69aaee381abe38081e99fbfe69dbfe381aee9888de38184e38186e381aae3828ae38292e3819fe381a6e3828be38081e5a4a7e3818de381aae5b985e381aee38182e3828be99d9ce3818be381aae6849fe68385e38082e28095e28095e4bd9be99980e381aee69599e381b8e3819fe68588e682b2e381aee593b2e5adb8efbc81e68987e38282e381a4e88ba5e38184e5a898e38289e38081e698a5e381aee5b18fe9a2a8e381aee5898de381abe5b185e381a6e38081e5909be381aee38197e381aae38284e3818be381aae882a9e38292e38199e381b9e38289e3819be38081e889b6e38281e3818be38197e38184e69bb2e7b79ae381afe8b6b3e381abe3818be38289e38280e38082e68987e38282e381a4e88ba5e38184e5a898e38289e38081e5909be381aee7ac91e9a18fe381abe68385e38292e381b5e3818fe38281e38288e38081e698a5e381afe4be86e38289e38293e381a8e38199e38082e38182e38182e59bbae38184e6b0b7e38292e7a0b4e381a4e381a6e7aa81e980b2e38199e3828be38081e4b880e381a4e381aee5af82e38197e38184e5b886e888b9e38288e38082e38182e381aee9ab98e38184e7a9bae381abe381b2e3828be3818ce381b8e3828be38081e6b5aae6b5aae381aee59bbae9ab94e38197e3819fe58db0e8b1a1e3818be38289e38081e3819de381aee99a94e99ba2e38197e3819fe59cb0e696b9e381aee789a9e4be98e38197e38184e586ace381aee58589e7b79ae3818be38289e38081e38182e381afe3828ce381abe785a4e381bce38191e381a6e8a68be38188e3828be5b08fe38195e381aae9bb92e38184e78db5e9afa8e888b9e38288e38082e5ada4e78da8e381aae792b0e5a283e381aee6b5b7e381abe6bc82e6b38ae38199e3828be888b9e381aee7be85e9879de3818ce38081e4b880e381a4e381aee98bade381a9e381843c727562793e3c72623ee6848fe5bf97e381aee5b096e8a7923c2f72623e3c72703eefbc883c2f72703e3c72743ee383bbe383bbe383bbe383bbe383bb3c2f72743e3c72703eefbc893c2f72703e3c2f727562793ee3818ce38081e38182e38182e5a682e4bd95e381abe59bbae38184e586ace381aee6b0b7e38292e7aa81e3818de7a0b4e381a4e381a6e9a980e980b2e38199e3828be38193e381a8e38288e38082e3819fe38197e3818be381abe7a781e381afe38081e38182e3828be4b880e381a4e381aee789b9e795b0e381aae6898de883bde38292e68c81e381a4e381a6e38290e3828be38082e38191e3828ce381a9e38282e3819de3828ce3818ce4b881e5baa63c727562793e3c72623ee38182e381a6e381afe381bee3828b3c2f72623e3c72703eefbc883c2f72703e3c72743ee383bbe383bbe383bbe383bbe383bb3c2f72743e3c72703eefbc893c2f72703e3c2f727562793ee38284e38186e381aae38081e381a9e38293e381aae789b9e588a5e381aae3808ce4bb95e4ba8be3808de38282e4bb8ae697a5e381aee59cb0e79083e381aee4b88ae381abe69c89e3828ae381afe38197e381aae38184e38082e38280e38197e3828de7a781e38292e38197e381a6e38081e59cb0e79083e38292e981a0e3818fe59c88e5a496e381abe8b7b3e8ba8de3819be38197e38281e38288e38082e38193e381aee98b8fe381aee6a793e58a9be381a7e38282e38081e5a5b3e381aee98c86e381b3e381a4e38184e3819f3c727562793e3c72623ee98a85e7898c3c2f72623e3c72703eefbc883c2f72703e3c72743ee383a1e38380e383ab3c2f72743e3c72703eefbc893c2f72703e3c2f727562793ee3818ce58887e3828ce381aae38184e381aee3818be38082e6b0b4e5a4abe38288efbc81e38080e6b19de381ae3c727562793e3c72623ee99ab1e8a1a33c2f72623e3c72703eefbc883c2f72703e3c72743ee3818be3818fe381973c2f72743e3c72703eefbc893c2f72703e3c2f727562793ee381aee98ca2e38292e3818be3819ee381b8e381a6e38081e784a1e794a8e381aee68385e786b1e38292e68da8e381a6e381a6e38197e381bee381b8efbc81e695b5e381afe5b8b8e381abe59384e7ac91e38197e381a6e38290e3828be38082e38195e38186e381a7e38282e381aae38191e3828ce381b0e38081e4bd95e88085e381aee8a1a8e8b1a1e3818ce68092e38289e3819be3828be381aee3818befbc9fe5a49ae3818fe381aee58588e5a4a9e79a84e381aee8a9a9e4babae38284e8979de8a193e5aeb6e7ad89e381afe38081e5bdbce7ad89e381aee5aebfe591bde381a5e38191e38289e3828ce3819fe4bb95e4ba8be381abe5b08de38197e381a6e38081e38182e381aee682b2e7979be381aae880b6e89887e381aee7a588e38292e38288e3818fe79fa5e381a4e381a6e3828be38082e3808ce7a59ee38288efbc81e38080e38282e38197e5bea1e5bf83e381abe981a9e381b5e381aae38289e381b0e38081e38193e381aee88ba6e3818de98592e79b83e38292e99ba2e38197e7b5a6e381b8e38082e38195e3828ce381a9e788bee381abe38197e381a6e6acb2e38199e3828be381aae38289e381b0e38081e5bea1e5bf83e381aee381bee381bee381abe788b2e38197e7b5a6e381b8e38082e3808de88d92e5afa5e381a8e38197e3819fe5b1b1e381aee4b8ade885b9e381a7e38081e5a381e381aee38284e38186e381abe6b288e9bb98e38197e381a6e38290e3828be38081e4b880e381aee5b7a8e5a4a7e381aae3828be880b3e38292e8a68be3819fe38082e58fa4e9a99be381aee38081e69fb3e381aee38182e3828be5b79de381aee5b2b8e381a7e38081e3818be3828ce381afe4bd95e38292e987a3e38289e38186e381a8e38199e3828be381aee3818be38082e38284e3818ce381a6e7949fe6b4bbe381aee89684e69aaee3818ce3818fe3828be381bee381a7e38081e3819de38293e381aae381abe38282e995b7e38184e99693e38081e9879de381aee381aae38184e987a3e7abbfe381a7e280a6e280a6e38082e3808ce590a6e3808de381a8e3819de381aee694afe982a3e4babae3818ce7ad94e381b8e3819fe38082e3808ce9ad9ae381aee7be8ee38197e3818fe8b5b0e3828be38292e79cbae38281e38288e38081e6b0b4e381aee99d9ce3818be381abe8a18ce3818fe38292e79cbae38281e38288e38082e38184e3818be381abe5909be381afe38193e381aee99d9ce8ac90e38292e5a5bde381bee381aae38184e3818be38082e38193e381aee9a2a8e699afe381aee881b0e6988ee381aae68385e8b6a3e38292e38082e38280e38197e3828de7a781e381afe38081e7b582e697a53c727562793e3c72623ee987a3e3828ae5be97e381aae381843c2f72623e3c72703eefbc883c2f72703e3c72743ee383bbe383bbe383bbe383bbe383bb3c2f72743e3c72703eefbc893c2f72703e3c2f727562793ee38193e381a8e38292e5b88ce69c9be38197e381a6e38290e3828be38082e38195e3828ce381b0e697a5e795b6e3828ae5a5bde38184e5af82e5afa5e381aee5b2b8e9828ae381abe59d90e38197e381a6e38081e7a781e381aee381a9e38293e381aae792b0e5a283e38292e38282e4ba82e38199e381aae3818be3828ce38082e3808de3819de381aee58685e983a8e381abe6a78be980a0e381aee694afe69fb1e38292e68c81e381a1e38081e69a97e38184e6a2afe5ad90e381a8e7b693e69687e38292e8978fe38199e3828be4bd9be99980e38288efbc81e38080e6b5b7e38288e3828ae38282e981a0e3818fe38081e4babae7959ce381aee4bd8fe38280e4b896e7958ce38292e8b68ae38188e381a6e38081e68c87e381aee38284e38186e381abe5b0a8e5a4a7e381aae3828cefbc81e6988ee3828be38184e7a19de5ad90e688b8e381aee5ba97e381aee4b8ade381a7e38081e4b880e381a4e381aee7a3a8e3818be3828ce3819fe98a83e599a8e38195e381b8e38282e38081e781abe897a5e38292e8a39de5a1abe38197e381a6e381aae38184e381aee381a7e38182e3828be38082e28095e28095e4bd95e3819fe3828be8999ae5a684e3819ee380823c727562793e3c72623ee687b6e788be3c2f72623e3c72703eefbc883c2f72703e3c72743ee38289e38293e381983c2f72743e3c72703eefbc893c2f72703e3c2f727562793ee381a8e38197e381a6e7ac91e381b8efbc81e6a99fe6a2b0e4babae99693e381abe38282e38197e6849fe68385e3818ce38182e3828be381a8e38199e3828ce381b0efbc9fe38080e784a1e99990e381aee59380e582b7e381aee381bbe3818be381aee4bd95e88085e381a7e38282e381aae38184e38082e596aee381abe5ada4e78da8e381a7e38182e3828be381b0e3818be3828ae381a7e381aae38184e38082e695b5e38292e4bba5e381a6e58585e3819fe38195e3828ce381a6e38290e3828befbc81e68385e7b792e38288efbc81e38080e5909be381afe6adb8e38289e38196e3828be3818be5b590e38081e5b590e38081e6b5aae38081e6b5aae38081e5a4a7e6b5aae38081e5a4a7e6b5aae38081e5a4a7e6b5aae38082e582bee38280e3818fe59cb0e5b9b3e7b79ae38081e4b88ae69887e38199e3828be59cb0e5b9b3e7b79ae38081e890bde381a1e3818fe3828be59cb0e5b9b3e7b79ae38082e3818ce381a1e38284e3818ce381a1e38284e38081e3818ce381a1e38284e3818ce381a1e38284e38082e4b88ae794b2e69dbfe381b8e38081e4b88ae794b2e69dbfe381b8e380823c727562793e3c72623ee98e963c2f72623e3c72703eefbc883c2f72703e3c72743ee38381e382a8e383b33c2f72743e3c72703eefbc893c2f72703e3c2f727562793ee38292e58db7e38191e380813c727562793e3c72623ee98e963c2f72623e3c72703eefbc883c2f72703e3c72743ee38381e382a8e383b33c2f72743e3c72703eefbc893c2f72703e3c2f727562793ee38292e58db7e38191e38082e7aa81e980b2e38199e3828be38081e7aa81e980b2e38199e3828be6b0b4e5a4abe38289e38082e888b9e5aea4e381aee7aa93e38081e7aa93e38081e7aa93e38081e7aa93e38082e582bee38280e3818fe59cb0e5b9b3e7b79ae38081e4b88ae69887e38199e3828be59cb0e5b9b3e7b79ae380823c727562793e3c72623ee98e963c2f72623e3c72703eefbc883c2f72703e3c72743ee38381e382a8e383b33c2f72743e3c72703eefbc893c2f72703e3c2f727562793ee380813c727562793e3c72623ee98e963c2f72623e3c72703eefbc883c2f72703e3c72743ee38381e382a8e383b33c2f72743e3c72703eefbc893c2f72703e3c2f727562793ee380813c727562793e3c72623ee98e963c2f72623e3c72703eefbc883c2f72703e3c72743ee38381e382a8e383b33c2f72743e3c72703eefbc893c2f72703e3c2f727562793ee38082e9a2a8e38081e9a2a8e38081e9a2a8e38082e6b0b4e38081e6b0b4e38081e6b0b4e380823c727562793e3c72623ee888b9e7aa933c2f72623e3c72703eefbc883c2f72703e3c72743ee3838fe38384e383813c2f72743e3c72703eefbc893c2f72703e3c2f727562793ee38292e99689e38281e3828de380823c727562793e3c72623ee888b9e7aa933c2f72623e3c72703eefbc883c2f72703e3c72743ee3838fe38384e383813c2f72743e3c72703eefbc893c2f72703e3c2f727562793ee38292e99689e38281e3828de38082e58fb3e888b7e381b8e38081e5b7a6e888b7e381b8e38082e6b5aae38081e6b5aae38081e6b5aae38082e381bbe381b2e38286e383bce3828be38082e381bbe381b2e38286e383bce3828be38082e381bbe381b2e38286e383bce3828be38082e68682e9acb1e381aee995b7e38184e69f84e3818be38289e38081e99ba8e3818ce38197e381a8e38197e381a8e381a83c727562793e3c72623ee6bbb43c2f72623e3c72703eefbc883c2f72703e3c72743ee38197e381a5e3818f3c2f72743e3c72703eefbc893c2f72703e3c2f727562793ee38292e38197e381a6e38290e3828be38082e79c9ee9bb92e381aee5a4a7e3818de381aae6b48be58298efbc81e788b6e381afe6b0b8e981a0e381abe682b2e5a3afe381a7e38182e3828be38082e789a7e5a0b4e381aee7899be3818ce88d89e38292e9a39fe381a4e381a6e38290e3828be381aee38292e381bfe381a6e38081e99691e695a3e38284e680a0e683b0e381aee8b6a3e591b3e38292e8a7a3e38197e381aae38184e381bbe381a9e38081e3819de3828ce381bbe381a93c727562793e3c72623ee8bf91e4bba3e79a84e381abe381aae381a4e381a6e38197e381bee381a4e3819f3c2f72623e3c72703eefbc883c2f72703e3c72743ee383bbe383bbe383bbe383bbe383bbe383bbe383bbe383bbe383bbe383bbe383bb3c2f72743e3c72703eefbc893c2f72703e3c2f727562793ee4babae4babae381abe381bee381a7e38081e7a781e381afe38184e3818be381aae3828be69c83e8a9b1e38292e38282e38195e38191e3828be381a7e38182e38289e38186e38082e7a781e381aee8828ce381abe38197e381bfe8bebce38293e381a7e3818fe3828be38081e38193e381aee7a78be697a5e5928ce381aee789a9e580a6e38184e79ca0e3819fe38195e381abe5b0b1e38184e381a6e38081e38193e381aee58fa4e9a2a8e381aae3828be7a781e381aee6809de683b3e381aee68385e8aabfe381abe5b0b1e38184e381a6e38081e38193e381aee4b88ae38282e381afe38284e8aa9ee38289e381aae38184e381a7e38182e38289e38186e38082e5bbbae7af89e28095e28095e789b9e381abe7bea4e59c98e38197e3819fe5bbbae7af89e28095e28095e381aee6a8a3e5bc8fe381afe38081e7a9bae381aee7a9b9e7aabfe381abe5b08de38197e381a6e6a78be683b3e38195e3828ce381ade381b0e381aae38289e381ace38082e58db3e381a1e58887e696b7e38195e3828ce3819fe3828be79083e381aee5bca7e5bda2e381abe5b08de38197e381a6e38081e6a78de78ab6e381aee59e82e79bb4e7b79ae38284e38081e59c93e98c90e5bda2e38284e381aee4baa4e98cafe3819be3828be6a78be683b3e38292e794a8e6848fe38199e381b9e3818de381a7e38182e3828be380823c62722f3ee38193e381aee892bce7a9bae381aee4b88be381abe696bce38191e3828be38081e981a0e696b9e381aee983bde69c83e381aee58db0e8b1a1e381a8e38197e381a6e38081e3818ae381bbe38280e381ade381aee5bbbae7af89e381afe4b880e381a4e381aee9878de8a681e381aae6848fe58ca0e38292e5bf98e3828ce381a6e38290e3828be38082e6a3aee3818be38289e3818be381b8e3828be381a8e3818de38081e7a781e381afe5b8bde5ad90e38292e381ace3818ee38199e381a6e3819fe38082e38182e38182e38081e8a898e686b6e38082e68190e3828de38197e3818fe7a0b4e3828ce381a1e3818ee381a4e3819fe8a898e686b6e38082e381bfe38198e38281e381aae38081e6b3a5e6b0b4e381aee4b8ade381abe88590e381a4e3819fe8a898e686b6e38082e38195e381b3e38197e38184e99ba8e699afe381aee98193e381abe381b5e3828be381b8e3828be7a781e381aee5b8bde5ad90e38082e8838ce5be8ce381abe68da8e381a6e381a6e8a18ce3818fe38082e381a8e38182e3828be5b9bbe78788e381aee4b8ade381a7e38081e99d92e799bde38184e99baae381aee9998de3828ae381a4e38282e381a4e381a6e38290e3828be38081e38197e381a5e3818be381aae38197e381a5e3818be381aae699afe889b2e381aee4b8ade381a7e38081e7a781e381afe4b880e381a4e381aee79c9ee79086e38292e381a4e3818be38293e381a0e38082e789a9e8a880e381b5e38193e381a8e381aee381a7e3818de381aae38184e38081e6b0b8e981a0e381abe6b0b8e981a0e381abe38186e38289e682b2e38197e38192e381aae38081e7a781e381afe3808ce8888ce381aee381aae38184e79c9ee79086e3808de38292e6849fe38198e3819fe38082e699afe889b2e381aee38081e5b9bbe78788e381aee38081e99baae381aee381a4e38282e3828be5bdb1e38292e9818ee3818ee58ebbe381a4e381a6e8a18ce3818fe38081e38195e381b3e38197e38184e99d92e78cabe381ae3c727562793e3c72623ee5838f3c2f72623e3c72703eefbc883c2f72703e3c72743ee3818be3819fe381a13c2f72743e3c72703eefbc893c2f72703e3c2f727562793ee38292e3818be38293e38198e3819fe38082e58d9ae5be92e7ad89e99b86e381bee3828ae38081e68a95e38192e381a4e38191e38289e3828ce3819fe3828be7949fe6b6afe381ae3c727562793e3c72623ee6a99fe59ba03c2f72623e3c72703eefbc883c2f72703e3c72743ee38381e383a4e383b3e382b93c2f72743e3c72703eefbc893c2f72703e3c2f727562793ee381aee4b88ae381a7e38081e8999ae695b8e381aee68385e786b1e38292e8b3ade38191e59088e381a4e381a6e38290e3828be38082e381bfe381aae58587e69ab4e381aee381a4e382893c727562793e3c72623ee9ad823c2f72623e3c72703eefbc883c2f72703e3c72743ee381a0e381bee38197e381b23c2f72743e3c72703eefbc893c2f72703e3c2f727562793ee380823c727562793e3c72623ee4bb81e7bea93c2f72623e3c72703eefbc883c2f72703e3c72743ee38198e38293e3818e3c2f72743e3c72703eefbc893c2f72703e3c2f727562793ee38292e6a78be381b8e38081e8998ee381aee38284e38186e381aae7a9bae6b49ee381abe5b185e3828be38082e88ba5e88d89e381aee88abde3818ce8908ce38188e3828be38284e38186e381abe38081e38193e381aee697a5e795b6e3828ae381aee38288e38184e88a9de7949fe381aee4b88ae381a7e381afe38081e6809de683b3e3818ce5be8ce3818be38289e5be8ce3818be38289e381a8e68890e995b7e38197e381a6e3818fe3828be38082e38191e3828ce381a9e38282e3819de3828ce38289e381aee6809de683b3e381afe38081e7a781e381abe381bee381a7e4bd95e381aee4baa4e6b889e3818ce38182e38289e38186e3819ee38082e7a781e381afe3819fe381a0e99d92e7a9bae38292e79cbae38281e381a6e5b185e3819fe38184e38082e38182e381aee892bce5a4a9e381aee5a4a2e381aee4b8ade381abe6bab6e38191e381a6e38197e381bee381b5e38284e38186e381aae38081e38195e38186e38184e381b5e6809de683b3e381aee5b9bbe683b3e381a0e38191e38292e882b2e3818fe381bfe3819fe38184e381aee381a0e38082e7a781e887aae8baabe381aee68385e7b792e381aee5bdb1e381a7e38081e381aae381a4e3818be38197e38184e7b791e999b0e381aee5a4a2e38292e381a4e3818fe3828be38284e38186e381aae38081e3819de3828ce38289e381aee3808ce68385e8aabfe38182e3828be6809de683b3e3808de381a0e38191e38292e8aa9ee3828ae3819fe38184e381aee381a0e38082e7a9bae9a39be381b6e5b08fe9b3a5e38288e38082e381a8e381afe38184e381b8e792b0e5a283e381aee99787e38292e7aa81e7a0b4e38199e381b9e3818de38081e381a9e38293e381aae58a9be3818ce3819de38193e381abe38182e3828be3818be38082e9bd92e3818ce381bfe381a6e38193e38289e381b8e38288e38082e38193e38289e381b8e38288e38082e38193e38289e381b8e38288e38082e38199e381b9e381a6e381aee6a98be381afe38081e4b880e381a4e381aee5bbbae7af89e6848fe58ca0e38197e3818be68c81e381a4e381a6e38290e381aae38184e38082e69982e99693e38292e7a9bae99693e381aee4b88ae381abe69eb6e38191e38081e68896e3828be5a4a2e5b9bbe79a84e381aae4b880e381a4e381ae3c727562793e3c72623ee8a780e5bfb53c2f72623e3c72703eefbc883c2f72703e3c72743ee382a4e38387e382a23c2f72743e3c72703eefbc893c2f72703e3c2f727562793ee38292e38081e78fbee5afa6e79a84e381abe8bea8e8ad89e38199e3828be38193e381a8e381aee786b1e6848fe381a7e38182e3828be380823c62722f3ee6a98be381a8e381afe28095e28095e5a4a2e38292e69eb6e7a9bae38197e3819fe695b8e5adb8e381a7e38182e3828be38082e68682e9acb1e381abe6b288e381bfe381aae3818ce38289e38081e381b2e381a8e3828ae5af82e38197e3818fe999b8e6a98be38292e6b8a1e381a4e381a6e8a18ce3818fe38082e3818be381a4e381a6e4bd95e789a9e381abe38195e381b8e5a6a5e58d94e3819be38196e3828be38081e4bd95e789a9e381abe38195e381b8e5ae89e69893e3819be38196e3828be38081e38193e381aee4b880e381a4e381aee6849fe68385e38292e381a9e38193e381b8e8a18ce3818be38186e3818be38082e890bde697a5e381afe59cb0e5b9b3e381abe4bd8ee3818fe38081e792b0e5a283e381afe68092e3828ae381abe78783e38188e381a6e3828be38082e4b880e58887e38292e6868ee683a1e38197e38081e7b289e7a28ee38197e38081e58f9be98086e38197e38081e598b2e7ac91e38197e38081e696ace5a5b8e38197e38081e695b5e684bee38199e3828be38081e38193e381aee4b880e5808be381aee9bb92e38184e5bdb1e38292e3839ee383b3e38388e381abe381a4e381a4e38293e381a7e38081e381b2e381a8e3828ae5af82e38197e3818fe999b8e6a98be38292e6b8a1e381a4e381a6e8a18ce3818fe38082e3818be381aee9ab98e38184e69eb6e7a9bae381aee6a98be38292e8b68ae38188e381a6e38081e381afe3828be3818be381aee5b9bbe78788e381aee5b882e8a197e381abe381bee381a7e38082e5a49ce6b1bde8bb8ae381aee4b8ade381a7e38081e99bbbe78788e381afe69a97e3818fe38081e6b288e9acb1e38197e3819fe7a9bae6b0a3e381aee4b8ade381a7e38081e4babae4babae381afe6b7b1e38184e79ca0e3828ae381abe890bde381a1e381a6e38290e3828be38082e4b880e4babae8b5b7e3818de381a6e7aa93e38292e381b2e38289e38191e381b0e38081e5a49ce9a2a8e381afe381a4e38281e3819fe3818fe8828ce381abe381b5e3828ce38081e99787e5a49ce381aee69a97e9bb92e381aae9878ee58e9fe38292e9a39be381b6e38081e38197e3818de3828ae381abe9a39be381b6e781abe89fb2e38292e381bfe3828be38082e38182e38182e38193e381aee79c9ee381a4e69a97e381aae68190e3828de38197e38184e699afe889b2e38292e8b2abe9809ae38199e3828befbc81e38080e6b7b1e5a49ce381aee8bd9fe8bd9fe381a8e38184e381b5e99fbfe381aee4b8ade381a7e38081e38184e381a5e38193e381b8e38081e38184e381a5e38193e381b8e38081e7a781e381aee5a49ce6b1bde8bb8ae381afe8a18ce3818be38186e381a8e38199e3828be381aee3818be38082e98fa1e381aee38186e38197e3828de381b8e5bbbbe381a4e381a6e381bfe381a6e38282e38081e3808ce7a781e3808de381afe3819de38193e381abe5b185e381aae38184e381aee381a7e38199e38288e38082e3818ae5ad83e38195e38293efbc81e38193e3828ce38289e381aee5a495e69aaee381afe6b699e38190e381bee38197e3818fe38081e7a781e381aee69bb8e9bd8be381abe8a8aae3828ce381a6e3818fe3828be38082e6809de683b3e381afe68385e8aabfe381aee5bdb1e381abe381ace3828ce381a6e38081e6849fe38198e381aee38288e38184e6b8a9e99b85e381aee889b2e59088e38292e5b8b6e381b3e381a6e8a68be38188e3828be38082e38182e38182e38184e3818be381abe4bb8ae381aee7a781e381abe381bee381a7e38081e4b880e381a4e381aee683a0e381bee3828ce3819fe5beb3e381afe381aae38184e3818be38082e4bd95e789a9e381aee58d91e58aa3e381abe38199e38289e38081e4bd95e789a9e381aee8999ae5839ee381abe38199e38289e38081e38182e381b8e381a6e9ab98e8b2b4e381aee5af9be5aeb9e38292e7a4bae38197e5be97e3828be38284e38186e381aae38081e4b880e381a4e381aee7a9a9e38284e3818be381abe38197e381a6e99691e99b85e381aae3828be5beb3e381afe381aae38184e3818be38082e28095e28095e7a781e38292e38197e381a6e78da8e3828ae5af82e38197e3818fe38081e4bb8ae697a5e381aee5a495e69aaee381aee7a9bae381abe9bb98e6809de3819be38197e38281e38288e38082e69bb8e7949fe381afe794bae381abe8a18ce3818de38081e5b7a5e5a0b4e381aee4b88be38292e9809ae3828ae38081e6a99fe9979ce8bb8ae381aee9b3b4e3828be99fbfe38292e881bde38184e3819fe38082e781abe5a4abe381aee8b5b0e3828ae38081e8bb8ae8bcaae381aee5bbbbe3828ae38081e7bea4e9b489e381aee596a7e8999fe38199e3828be5b7b7e381aee4b8ade381a7e38081e381afe38284e4b880e381a4e381aee883a1e5bc93e381afe88db7e980a0e38195e3828ce38081e8b2a8e8bb8ae381abe7a98de381bee3828ce38081e38195e38186e38197e381a6e6b8afe381aee58089e5baabe381aee696b9e381b8e38081e7a88ee9979ce381aee99680e38292e3818fe38190e381a4e381a6e8a18ce381a4e3819fe380823c62722f3ee58d81e69c88e4b88be697ace38082e69bb8e7949fe381afe9a3afe38292e9a39fe381afe38186e381a8e38197e381a6e38081e69eafe3828ce3819fe88a9de88d89e381aee58089e5baabe381aee5bdb1e381abe38081e99fb3e6a882e381aee5bf8de381b3e5b185e3828ae38081e89f8be89f80e381aee38284e38186e381abe9b3b4e3818fe381aee38292e881bde38184e3819fe380823c62722f3ee28095e28095e68385e7b792e38288e38081e5909be381afe6adb8e38289e38196e3828be3818be38082e5a49ce98193e38292e8b5b0e3828be6b1bde8bb8ae381bee381a7e38081e4b880e381a4e381aee8b5a4e38184e78788e781abe38292e7a4bae3819be38288e38082e4bb8ae3819de38193e381abe58db1e99aaae3818ce38182e3828be38082e696b7e6a98befbc81e38080e696b7e6a98befbc81e38080e38182e38182e682b2e9b3b4e381afe9a2a8e38292e381a4e38293e38196e3818fe38082e381a0e3828ce3818ce3819de3828ce38292e79fa5e3828be3818be38082e7b2bee7a59ee381afe99787e381aee69ba0e9878ee38292e381b2e3819fe8b5b0e3828be38082e680a5e8a18ce38197e38081e680a5e8a18ce38197e38081e680a5e8a18ce38197e38081e5bdbce381aee682b2e58a87e381aee7b582e9a99be381b8e381a8e38082e79086e9abaee5ba97e381aee99d92e38184e7aa93e3818be38289e38081e891b1e381aee38284e38186e381abe7aa81e3818de587bae38199e6a38de6a392e38082e3819de38184e381a4e381aee9a6ace9b9bfe38289e38197e38184e6a99fe6a2b0e4bb95e68e9be381a7e38081e5a4a2e4b8ade381abe381aae38190e38289e3828ce38081e381aae38190e38289e3828ce381a6e5b185e3828be380823c727562793e3c72623ee6b5b7e8b1b93c2f72623e3c72703eefbc883c2f72703e3c72743ee38182e38196e38289e381973c2f72743e3c72703eefbc893c2f72703e3c2f727562793ee381aee38284e38186e381abe38081e6a5b5e58589e381aee8a68be38188e3828be6b0b7e381aee4b88ae381a7e38081e381bce38293e38284e3828ae381a8e3808ce887aae58886e38292e5bf98e3828ce381a6e3808de59d90e381a4e381a6e38290e3819fe38184e38082e3819de38193e381abe69982e58aabe3818ce38199e3818ee58ebbe381a4e381a6e8a18ce3818fe38082e6999de5a49ce381aee381aae38184e6a5b5e58589e59cb0e696b9e381aee38081e38184e381a4e38282e69aaee3828ce696b9e381aee38284e38186e381aae58589e7b79ae3818ce38081e9888de3818fe682b2e38197e38192e381abe5b9bde6bb85e38199e3828be381a8e38193e3828de38082e38182e38182e3819de381aee981a0e38184e58c97e6a5b5e59c88e381aee6b0b7e381aee4b88ae381a7e38081e381bce38293e38284e3828ae381a8e6b5b7e8b1b9e381aee38284e38186e381abe59d90e381a4e381a6e5b185e3819fe38184e38082e6b0b8e981a0e381abe38081e6b0b8e981a0e381abe38081e887aae58886e38292e5bf98e3828ce381a6e38081e6809de6839fe381aee381bbe381aee69a97e38184e6b5b7e381abe6b5aee381b6e38081e4b880e381a4e381aee4be98e38197e38184e5b9bbe8b1a1e38292e79cbae38281e381a6e5b185e3819fe38184e381aee381a7e38199e38082e8a68be38288efbc81e38080e5bdbce381afe9a2a8e381aee38284e38186e381abe4be86e3828be38082e3819de381aee9a18de381afe68682e9acb1e381abe99d92e38196e38281e381a6e38290e3828be38082e880b3e381afe38199e3828be381a9e3818fe58887e381a4e7ab8be381a1e38081e381bee381aae38198e3828ae381afe68092e381abe8a382e38191e381a6e38290e3828be380823c62722f3ee5909be38288efbc81e380803c727562793e3c72623ee78ba1e699ba3c2f72623e3c72703eefbc883c2f72703e3c72743ee383bbe383bb3c2f72743e3c72703eefbc893c2f72703e3c2f727562793ee381aee3818be3818fe381aee5a682e3818de7be8ee38197e3818de8a1a8e68385e38292e381a9e38193e381abe8a68be3819fe3818be38082e6a99fe9979ce98a83e38288e3828ae38282e682b2e38197e38192e381abe38081e7b98be79599e6b0a3e79083e38288e3828ae38282e68682e9acb1e381abe38081e782b8e8a382e5bd88e38288e3828ae38282e6ae98e5bf8de381abe38081e6af92e793a6e696afe38288e3828ae38282e6b288e7979be381abe38081e69bb3e781abe5bd88e38288e3828ae38282e892bce799bde3818fe38081e5a4a7e7a0b2e38288e3828ae38282e383ade3839ee383b3e38381e38384e382afe381abe38081e78599e5b995e38288e3828ae38282e5af82e38197e38192e381abe38081e98a83e781abe381aee799bde3818fe99683e38281e3818fe38284e38186e381aae8a9a9e3818ce69bb8e3818de3819fe38184efbc81e4babae3818ce5aeb6e381aee4b8ade381abe4bd8fe38293e381a7e3828be381aee381afe38081e59cb0e4b88ae381aee682b2e38197e38184e9a2a8e699afe381a7e38182e3828be38082e9be8de381afe5b89de78e8be381aee6acb2e69c9be38292e8b1a1e5beb4e38197e381a6e38290e3828be38082e6ac8ae58a9be381aee7a5a5e99bb2e381abe4b998e381a4e381a6e5b185e381aae3818ce38289e38081e5b8b8e381abe686a4e381bbe3828de38197e38184e6819ae68092e381abe78783e38188e38081e4b88de696b7e381aee788ade9acaae381aee3819fe38281e381abe78999e38292e38280e38184e381a6e3828be38082",
  "devdoc": {
    "kind": "dev",
    "methods": {},
    "version": 1
  },
  "userdoc": {
    "kind": "user",
    "methods": {},
    "version": 1
  },
  "storageLayout": {
    "storage": [
      {
        "astId": 952,
        "contract": "contracts/TokenURI.sol:TokenURI",
        "label": "poemTitles",
        "offset": 0,
        "slot": "0",
        "type": "t_array(t_string_storage)dyn_storage"
      },
      {
        "astId": 995,
        "contract": "contracts/TokenURI.sol:TokenURI",
        "label": "poemBodies",
        "offset": 0,
        "slot": "1",
        "type": "t_array(t_string_storage)dyn_storage"
      }
    ],
    "types": {
      "t_array(t_string_storage)dyn_storage": {
        "base": "t_string_storage",
        "encoding": "dynamic_array",
        "label": "string[]",
        "numberOfBytes": "32"
      },
      "t_string_storage": {
        "encoding": "bytes",
        "label": "string",
        "numberOfBytes": "32"
      }
    }
  }
}